{
  "contractName": "LMSRMarketMakerFactory",
  "abi": [
    {
      "constant": true,
      "inputs": [],
      "name": "implementationMaster",
      "outputs": [
        {
          "name": "",
          "type": "address"
        }
      ],
      "payable": false,
      "stateMutability": "view",
      "type": "function"
    },
    {
      "inputs": [],
      "payable": false,
      "stateMutability": "nonpayable",
      "type": "constructor"
    },
    {
      "anonymous": false,
      "inputs": [
        {
          "indexed": true,
          "name": "creator",
          "type": "address"
        },
        {
          "indexed": false,
          "name": "lmsrMarketMaker",
          "type": "address"
        },
        {
          "indexed": false,
          "name": "pmSystem",
          "type": "address"
        },
        {
          "indexed": false,
          "name": "collateralToken",
          "type": "address"
        },
        {
          "indexed": false,
          "name": "conditionIds",
          "type": "bytes32[]"
        },
        {
          "indexed": false,
          "name": "fee",
          "type": "uint64"
        },
        {
          "indexed": false,
          "name": "funding",
          "type": "uint256"
        }
      ],
      "name": "LMSRMarketMakerCreation",
      "type": "event"
    },
    {
      "anonymous": false,
      "inputs": [
        {
          "indexed": true,
          "name": "previousOwner",
          "type": "address"
        },
        {
          "indexed": true,
          "name": "newOwner",
          "type": "address"
        }
      ],
      "name": "OwnershipTransferred",
      "type": "event"
    },
    {
      "anonymous": false,
      "inputs": [
        {
          "indexed": false,
          "name": "initialFunding",
          "type": "uint256"
        }
      ],
      "name": "AMMCreated",
      "type": "event"
    },
    {
      "anonymous": false,
      "inputs": [
        {
          "indexed": true,
          "name": "target",
          "type": "address"
        },
        {
          "indexed": false,
          "name": "clone",
          "type": "address"
        }
      ],
      "name": "CloneCreated",
      "type": "event"
    },
    {
      "constant": false,
      "inputs": [
        {
          "name": "consData",
          "type": "bytes"
        }
      ],
      "name": "cloneConstructor",
      "outputs": [],
      "payable": false,
      "stateMutability": "nonpayable",
      "type": "function"
    },
    {
      "constant": false,
      "inputs": [
        {
          "name": "pmSystem",
          "type": "address"
        },
        {
          "name": "collateralToken",
          "type": "address"
        },
        {
          "name": "conditionIds",
          "type": "bytes32[]"
        },
        {
          "name": "fee",
          "type": "uint64"
        },
        {
          "name": "whitelist",
          "type": "address"
        },
        {
          "name": "funding",
          "type": "uint256"
        }
      ],
      "name": "createLMSRMarketMaker",
      "outputs": [
        {
          "name": "lmsrMarketMaker",
          "type": "address"
        }
      ],
      "payable": false,
      "stateMutability": "nonpayable",
      "type": "function"
    }
  ],
  "bytecode": "0x608060405234801561001057600080fd5b5060405161001d9061005f565b604051809103906000f080158015610039573d6000803e3d6000fd5b50600c80546001600160a01b0319166001600160a01b039290921691909117905561006c565b6128318061194183390190565b6118c68061007b6000396000f3fe608060405234801561001057600080fd5b50600436106100415760003560e01c806312b4d20c1461004657806352e831dd1461006a5780637c8b2c07146100dc575b600080fd5b61004e610184565b604080516001600160a01b039092168252519081900360200190f35b6100da6004803603602081101561008057600080fd5b81019060208101813564010000000081111561009b57600080fd5b8201836020820111156100ad57600080fd5b803590602001918460018302840111640100000000831117156100cf57600080fd5b509092509050610193565b005b61004e600480360360c08110156100f257600080fd5b6001600160a01b03823581169260208101359091169181019060608101604082013564010000000081111561012657600080fd5b82018360208201111561013857600080fd5b8035906020019184602083028401116401000000008311171561015a57600080fd5b919350915067ffffffffffffffff813516906001600160a01b0360208201351690604001356105db565b600c546001600160a01b031681565b6000806060600080868660a08110156101ab57600080fd5b6001600160a01b0382358116926020810135909116918101906060810160408201356401000000008111156101df57600080fd5b8201836020820111156101f157600080fd5b8035906020019184602083028401116401000000008311171561021357600080fd5b919080806020026020016040519081016040528093929190818152602001838360200280828437600092018290525080546001600160a01b03191633178082556040519a9f50989d50939b505067ffffffffffffffff8435169950506001600160a01b0360209093013583169750509316937f8be0079c531659141344cd1fd0a4f28419497f9722a3daafe3b4186f6b6457e09250839150a3600160208190527fb45820386466a8e01597d6e1efaf8f11ba4467972de5ca6c1f8aa3544ac2888e805460ff199081168317909155630271189760e51b6000527f2b11aca8aedb4d95239fb39fb7039ebbb812f8d66e5d5efc27f004162309980d805490911690911790556001600160a01b038516158015906103405750670de0b6b3a764000067ffffffffffffffff8316105b61034957600080fd5b600280546001600160a01b038088166001600160a01b0319928316179092556003805492871692909116919091179055825161038c90600490602086019061176c565b506006805467ffffffffffffffff191667ffffffffffffffff841617905560088054610100600160a81b0319166101006001600160a01b0384160217905560016005556004546040805182815260208084028201019091529080156103fb578160200160208202803883390190505b5080516104109160099160209091019061176c565b5060005b6004548110156104dd57600254600480546000926001600160a01b03169163d42dc0c2918590811061044257fe5b90600052602060002001546040518263ffffffff1660e01b81526004018082815260200191505060206040518083038186803b15801561048157600080fd5b505afa158015610495573d6000803e3d6000fd5b505050506040513d60208110156104ab57600080fd5b50516005805482029055600980549192508291849081106104c857fe5b60009182526020909120015550600101610414565b50600160055411610535576040805162461bcd60e51b815260206004820152601860248201527f636f6e646974696f6e73206d7573742062652076616c69640000000000000000604482015290519081900360640190fd5b60045460408051828152602080840282010190915290801561056b57816020015b60608152602001906001900390816105565790505b50805161058091600a916020909101906117b7565b5060045461058f9060006109b4565b6008805460ff1916600117905560075460408051918252517f631ac92e0a879a687b1bd27a7dcbf3ec0be307aa0a1046c0df4109be02c49307916020908290030190a150505050505050565b60006106b4600c60009054906101000a90046001600160a01b031689898989898960405160200180876001600160a01b03166001600160a01b03168152602001866001600160a01b03166001600160a01b03168152602001806020018467ffffffffffffffff1667ffffffffffffffff168152602001836001600160a01b03166001600160a01b031681526020018281038252868682818152602001925060200280828437600081840152601f19601f820116905080830192505050975050505050505050604051602081830303815290604052610a85565b604080516323b872dd60e01b81523360048201523060248201526044810185905290519192506001600160a01b038916916323b872dd916064808201926020929091908290030181600087803b15801561070d57600080fd5b505af1158015610721573d6000803e3d6000fd5b505050506040513d602081101561073757600080fd5b50506040805163095ea7b360e01b81526001600160a01b0383811660048301526024820185905291519189169163095ea7b3916044808201926020929091908290030181600087803b15801561078c57600080fd5b505af11580156107a0573d6000803e3d6000fd5b505050506040513d60208110156107b657600080fd5b5050604080516321fce69760e21b81526004810184905290516001600160a01b038316916387f39a5c91602480830192600092919082900301818387803b15801561080057600080fd5b505af1158015610814573d6000803e3d6000fd5b50505050806001600160a01b031663046f7da26040518163ffffffff1660e01b8152600401600060405180830381600087803b15801561085357600080fd5b505af1158015610867573d6000803e3d6000fd5b50506040805163f2fde38b60e01b815233600482015290516001600160a01b038516935063f2fde38b9250602480830192600092919082900301818387803b1580156108b257600080fd5b505af11580156108c6573d6000803e3d6000fd5b50505050336001600160a01b03167f6867cd3ddf1a2f1ce80923be4ebe91b6cdab90ef2266e1b5c38c3e509ad0d8f8828a8a8a8a8a8960405180886001600160a01b03166001600160a01b03168152602001876001600160a01b03166001600160a01b03168152602001866001600160a01b03166001600160a01b03168152602001806020018467ffffffffffffffff1667ffffffffffffffff1681526020018381526020018281038252868682818152602001925060200280828437600083820152604051601f909101601f19169092018290039a509098505050505050505050a2979650505050505050565b816109ed57600354600b906109d2906001600160a01b031683610c54565b81546001810183556000928352602090922090910155610a81565b818060019003925050600060098381548110610a0557fe5b90600052602060002001549050600a8381548110610a1f57fe5b600091825260208083209091018054600181018255908352908220018390555b81811015610a7e57610a7684610a718560048881548110610a5c57fe5b9060005260206000200154856001901b610c98565b6109b4565b600101610a3f565b50505b5050565b60006060826040516024018080602001828103825283818151815260200191508051906020019080838360005b83811015610aca578181015183820152602001610ab2565b50505050905090810190601f168015610af75780820380516001836020036101000a031916815260200191505b5060408051601f1981840381018252928252602080820180516001600160e01b03166352e831dd60e01b17905281518351606382018082526082909201909516850190910190925295506060945090925090508015610b5d576020820181803883390190505b507f3d3d606380380380913d393d73bebebebebebebebebebebebebebebebebebebe6020820152600160601b308102602d8301527f5af4602a57600080fd5b602d8060366000396000f3363d3d373d3d3d363d73be6041830152860260608201526e5af43d82803e903d91602b57fd5bf360881b6074820152905060005b8251811015610c2957828181518110610bf057fe5b602001015160f81c60f81b828260630181518110610c0a57fe5b60200101906001600160f81b031916908160001a905350600101610bdb565b5080516020820181816000f0945050506001600160a01b038316610c4c57600080fd5b505092915050565b6040805160609390931b6bffffffffffffffffffffffff19166020808501919091526034808501939093528151808503909301835260549093019052805191012090565b6040805160208082018590528183018490528251808303840181526060909201909252805191012060009060ff81901c151582805b6000805160206118728339815191526001850893506000805160206118728339815191526003600080516020611872833981519152808788098709089050610d1481610fc7565b9150806000805160206118728339815191528384091415610ccd57828015610d3d575060028206155b80610d54575082158015610d545750600282066001145b15610d6d57816000805160206118728339815191520391505b878015610fa45760fe81901c151593506001600160fe1b031660008051602061187283398151915260036000805160206118728339815191528084850984090891506000610dba83610fc7565b9050848015610dca575060028106155b80610de1575084158015610de15750600281066001145b15610df757600080516020611872833981519152035b8260008051602061187283398151915282830914610e5c576040805162461bcd60e51b815260206004820152601c60248201527f696e76616c696420706172656e7420636f6c6c656374696f6e20494400000000604482015290519081900360640190fd5b6000606060066001600160a01b031688878686604051602001808581526020018481526020018381526020018281526020019450505050506040516020818303038152906040526040518082805190602001908083835b60208310610ed25780518252601f199092019160209182019101610eb3565b6001836020036101000a038019825116818451168082178552505050505050905001915050600060405180830381855afa9150503d8060008114610f32576040519150601f19603f3d011682016040523d82523d6000602084013e610f37565b606091505b509150915081610f7d576040805162461bcd60e51b815260206004820152600c60248201526b1958d859190819985a5b195960a21b604482015290519081900360640190fd5b808060200190516040811015610f9257600080fd5b50805160209091015190985095505050505b6002830660011415610fba57600160fe1b851894505b5092979650505050505050565b6000600080516020611872833981519152808380099150808283098181820990508181840992508183850993508184840992508183840990508181820982818309905082818209905082818209905082818309915082828609945082858609915082828309915082828509935082848509915082828309915082828309915082828509915082828609945082858609915082828309915082828309915082828609915082828509935082848609945082858609915082828309915082828509935082848509915082828309905082818209905082818209905082818309915082828609945082858509935082848509915082828309915082828309915082828609945082858609915082828309915082828609915082828309915082828309915082828609915082828509935082848509915082828309905082818209905082818309905082818509905082818209905082818209905082818209905082818209905082818309915082828609945082858609915082828609915082828509935082848509915082828509915082828309915082828309905082818309905082818209838182099050838182099050838182099050838182099050838183099150508281830991508282860994508285850993508284850991508282860994508285850993508284860994508285850993508284860994508285860991508282860991508282830991508282850993508284850991508282830991508282860994508285850993508284850991508282850991508282860994508285850993508284860994508285850993508284850991508282830991508282850991508282860994508285860991508282860991508282850993508284860994508285850993508284860994508285850993508284850991508282850991508282830991508282860994508285850993508284850991508282850991508282830991508282860994508285860991508282830990508281820990508281830990508281860990508281820990508281820990508281820990508281820990508281830991508282850993508284860994508285850993508284860994508285860991508282860991508282830991508282830991508282830991508282860991508282850993508284850991508282850991508282830991508282860994508285860991508282860991508282850993508284860994508285860991508282830991508282850993508284860994508285860991508282850993508284860994508285850993508284850991508282850991508282860994508285850993508284850991508282850991508282830991508282830991508282860994508285860991508282830991508282830991508282860991508282850993508284860994508285860991508282860990508281820990508281820990508281830991508282850993508284850991508282860994508285850993508284860994508285850993508284860994508285850993508284850991508282850990508281850991508282830991508282830991508282820991505081818509935081848409925081838509935081848409925081838509935081848509905081818509905081818409925050808284099250808384099250808384099250808384099250808384099250808384099250808384099250808384099250808384099250808384099250808384099250808384099250808384099250808384099250808384099250808384099250808384099250808384099250808384099250808384099250808384099250808384099250808384099250808384099250808384099250808384099250808384099250808384099250808384099250808384099250808384099250808384099250808384099250808384099250808384099250808384099250808384099250808384099250808384099250808384099250808384099250808384099250808384099250808384099250808384099250808384099250808384099250808384099250808384099250808384099250808384099250808384099250808384099250808384099250808384099250808384099250808384099250808384099250808384099250808384099250808384099250808384099250808384099250808384099250808384099250808384099250808384099250808384099250808384099250808384099250808384099250808384099250808384099250808384099250808384099250808384099250808384099250808384099250808384099250808384099250808384099250808384099250808384099250808384099250808384099250808384099250808384099250808384099250808384099250808384099250808384099250808384099250808384099250808384099250808384099250808384099250808384099250808384099250808384099250808384099250808384099250808384099250808384099250808384099250808384099250808384099250808384099250808384099250808384099250808384099250808384099250808384099250808384099250808384099250808384099250808384099250808384099250808384099250808384099250808384099250808384099250808384099250808384099250808384099250808384099250808384099250808384099250808383099392505050565b8280548282559060005260206000209081019282156117a7579160200282015b828111156117a757825182559160200191906001019061178c565b506117b3929150611810565b5090565b828054828255906000526020600020908101928215611804579160200282015b8281111561180457825180516117f491849160209091019061176c565b50916020019190600101906117d7565b506117b392915061182d565b61182a91905b808211156117b35760008155600101611816565b90565b61182a91905b808211156117b35760006118478282611850565b50600101611833565b508054600082559060005260206000209081019061186e9190611810565b5056fe30644e72e131a029b85045b68181585d97816a916871ca8d3c208c16d87cfd47a265627a7a723058202cf8e9488885051a9a9a3665a915112ddb032611b8a7b1cf2427160f3072ecac64736f6c634300050a003260806040819052600080546001600160a01b03191633178082556001600160a01b0316917f8be0079c531659141344cd1fd0a4f28419497f9722a3daafe3b4186f6b6457e0908290a36200007c7f01ffc9a7000000000000000000000000000000000000000000000000000000006001600160e01b03620000b616565b620000b07f4e2312e0000000000000000000000000000000000000000000000000000000006001600160e01b03620000b616565b62000188565b7fffffffff0000000000000000000000000000000000000000000000000000000080821614156200014857604080517f08c379a000000000000000000000000000000000000000000000000000000000815260206004820152601c60248201527f4552433136353a20696e76616c696420696e7465726661636520696400000000604482015290519081900360640190fd5b7fffffffff00000000000000000000000000000000000000000000000000000000166000908152600160208190526040909120805460ff19169091179055565b61269980620001986000396000f3fe608060405234801561001057600080fd5b50600436106101a95760003560e01c8063b0011509116100f9578063d8c55af711610097578063e7f3378911610071578063e7f33789146105d1578063f23a6e61146105f8578063f2fde38b1461068b578063fbde47f6146106b1576101a9565b8063d8c55af714610587578063dd83bad2146105a4578063ddca3f43146105ac576101a9565b8063bc197c81116100d3578063bc197c8114610407578063c040e6b81461054b578063c618a1e414610577578063cb4c86b71461057f576101a9565b8063b0011509146103c2578063b2016bd4146103df578063b20f8e7f146103e7576101a9565b8063715018a61161016657806387f39a5c1161014057806387f39a5c1461038d5780638da5cb5b146103aa5780638f32d59b146103b257806393e59dc1146103ba576101a9565b8063715018a6146102dc578063782d085b146102e45780638456cb5914610385576101a9565b806301ffc9a7146101ae578063046f7da2146101e957806305be8b2c146101f357806315bd76111461021757806343d726d6146102cc578063476343ee146102d4575b600080fd5b6101d5600480360360208110156101c457600080fd5b50356001600160e01b0319166106b9565b604080519115158252519081900360200190f35b6101f16106d8565b005b6101fb610773565b604080516001600160a01b039092168252519081900360200190f35b6102ba6004803603604081101561022d57600080fd5b810190602081018135600160201b81111561024757600080fd5b82018360208201111561025957600080fd5b803590602001918460208302840111600160201b8311171561027a57600080fd5b9190808060200260200160405190810160405280939291908181526020018383602002808284376000920191909152509295505091359250610782915050565b60408051918252519081900360200190f35b6101f1610ee7565b6102ba61110f565b6101f16112a6565b6102ba600480360360208110156102fa57600080fd5b810190602081018135600160201b81111561031457600080fd5b82018360208201111561032657600080fd5b803590602001918460208302840111600160201b8311171561034757600080fd5b919080806020026020016040519081016040528093929190818152602001838360200280828437600092019190915250929550611337945050505050565b6101f1611635565b6101f1600480360360208110156103a357600080fd5b50356116d3565b6101fb611a0a565b6101d5611a19565b6101fb611a2a565b6102ba600480360360208110156103d857600080fd5b5035611a3e565b6101fb611a5e565b6102ba600480360360208110156103fd57600080fd5b503560ff16611a6d565b61052e600480360360a081101561041d57600080fd5b6001600160a01b038235811692602081013590911691810190606081016040820135600160201b81111561045057600080fd5b82018360208201111561046257600080fd5b803590602001918460208302840111600160201b8311171561048357600080fd5b919390929091602081019035600160201b8111156104a057600080fd5b8201836020820111156104b257600080fd5b803590602001918460208302840111600160201b831117156104d357600080fd5b919390929091602081019035600160201b8111156104f057600080fd5b82018360208201111561050257600080fd5b803590602001918460018302840111600160201b8311171561052357600080fd5b509092509050611c4b565b604080516001600160e01b03199092168252519081900360200190f35b610553611c7c565b6040518082600281111561056357fe5b60ff16815260200191505060405180910390f35b6102ba611c85565b6102ba611c8b565b6102ba6004803603602081101561059d57600080fd5b5035611c91565b6102ba611caf565b6105b4611cb5565b6040805167ffffffffffffffff9092168252519081900360200190f35b6101f1600480360360208110156105e757600080fd5b503567ffffffffffffffff16611cc5565b61052e600480360360a081101561060e57600080fd5b6001600160a01b03823581169260208101359091169160408201359160608101359181019060a081016080820135600160201b81111561064d57600080fd5b82018360208201111561065f57600080fd5b803590602001918460018302840111600160201b8311171561068057600080fd5b509092509050611d87565b6101f1600480360360208110156106a157600080fd5b50356001600160a01b0316611db6565b6105b4611e09565b6001600160e01b03191660009081526001602052604090205460ff1690565b6106e0611a19565b61071f576040805162461bcd60e51b81526020600482018190526024820152600080516020612622833981519152604482015290519081900360640190fd5b60018060095460ff16600281111561073357fe5b1461073d57600080fd5b6009805460ff191690556040517fb0cf596e1402e50b88a6d1097918e48922e4a2878ece11d7bb51b5d81cf6c17890600090a150565b6002546001600160a01b031681565b6000808060095460ff16600281111561079757fe5b146107a157600080fd5b60095461010090046001600160a01b03161580610835575060095460408051633af32abf60e01b815233600482015290516101009092046001600160a01b031691633af32abf91602480820192602092909190829003018186803b15801561080857600080fd5b505afa15801561081c573d6000803e3d6000fd5b505050506040513d602081101561083257600080fd5b50515b6108705760405162461bcd60e51b815260040180806020018281038252602d8152602001806125f5602d913960400191505060405180910390fd5b60055484511461087f57600080fd5b600061088a85611337565b90506000808212156108a9576108a282600003611a3e565b90506108b5565b6108b282611a3e565b90505b60008112156108c357600080fd5b6108d3828263ffffffff611e1516565b935084158015906108e45750848413155b806108ed575084155b6108f657600080fd5b6000821315610a3857600354604080516323b872dd60e01b81523360048201523060248201526044810187905290516001600160a01b03909216916323b872dd916064808201926020929091908290030181600087803b15801561095957600080fd5b505af115801561096d573d6000803e3d6000fd5b505050506040513d602081101561098357600080fd5b50518015610a1257506003546002546040805163095ea7b360e01b81526001600160a01b039283166004820152602481018690529051919092169163095ea7b39160448083019260209291908290030181600087803b1580156109e557600080fd5b505af11580156109f9573d6000803e3d6000fd5b505050506040513d6020811015610a0f57600080fd5b50515b610a1b57600080fd5b600854610a2e908363ffffffff611e4a16565b50610a3882611eab565b60008090506060600554604051908082528060200260200182016040528015610a6b578160200160208202803883390190505b50905060005b600554811015610ad3576000898281518110610a8957fe5b60200260200101511215610acb5760019250888181518110610aa757fe5b6020026020010151600003828281518110610abe57fe5b6020026020010181815250505b600101610a71565b508115610bec57600254604051631759616b60e11b81523360048201818152306024840181905260a060448501908152600c805460a487018190526001600160a01b0390971696632eb2c2d696939491938993916064820191608481019160c49091019087908015610b6457602002820191906000526020600020905b815481526020019060010190808311610b50575b50508481038352855181528551602091820191808801910280838360005b83811015610b9a578181015183820152602001610b82565b50505050905001848103825260008152602001602001975050505050505050600060405180830381600087803b158015610bd357600080fd5b505af1158015610be7573d6000803e3d6000fd5b505050505b6000841215610c0157610c0184600003612036565b336001600160a01b03167fda7ff5556ce7ecfcf06296f03426e8c02a7305b85cfd88816a32f7f4969051778986866040518080602001848152602001838152602001828103825285818151815260200191508051906020019060200280838360005b83811015610c7b578181015183820152602001610c63565b5050505090500194505050505060405180910390a260009150815b600554811015610d14576000898281518110610cae57fe5b60200260200101511315610cf15760019250888181518110610ccc57fe5b6020026020010151828281518110610ce057fe5b602002602001018181525050610d0c565b6000828281518110610cff57fe5b6020026020010181815250505b600101610c96565b508115610e2d57600254604051631759616b60e11b81523060048201818152336024840181905260a060448501908152600c805460a487018190526001600160a01b0390971696632eb2c2d696939491938993916064820191608481019160c49091019087908015610da557602002820191906000526020600020905b815481526020019060010190808311610d91575b50508481038352855181528551602091820191808801910280838360005b83811015610ddb578181015183820152602001610dc3565b50505050905001848103825260008152602001602001975050505050505050600060405180830381600087803b158015610e1457600080fd5b505af1158015610e28573d6000803e3d6000fd5b505050505b6000861215610edc576003546040805163a9059cbb60e01b81523360048201526000898103602483015291516001600160a01b039093169263a9059cbb92604480840193602093929083900390910190829087803b158015610e8e57600080fd5b505af1158015610ea2573d6000803e3d6000fd5b505050506040513d6020811015610eb857600080fd5b5051610ec357600080fd5b600854610eda90600088900363ffffffff611e4a16565b505b505050505092915050565b610eef611a19565b610f2e576040805162461bcd60e51b81526020600482018190526024820152600080516020612622833981519152604482015290519081900360640190fd5b600060095460ff166002811115610f4157fe5b1480610f5d5750600160095460ff166002811115610f5b57fe5b145b610f985760405162461bcd60e51b81526004018080602001828103825260238152602001806126426023913960400191505060405180910390fd5b60005b6005548110156110d6576000610fb0826121ad565b6002549091506001600160a01b031663f242432a30610fcd611a0a565b60025460408051627eeac760e11b815230600482015260248101889052905187926001600160a01b03169162fdd58e916044808301926020929190829003018186803b15801561101c57600080fd5b505afa158015611030573d6000803e3d6000fd5b505050506040513d602081101561104657600080fd5b5051604080516001600160e01b031960e088901b1681526001600160a01b0395861660048201529390941660248401526044830191909152606482015260a06084820152600060a48201819052915160e4808301939282900301818387803b1580156110b157600080fd5b505af11580156110c5573d6000803e3d6000fd5b505060019093019250610f9b915050565b506009805460ff191660021790556040517f6e18b1b14477b5922c6efa82206ed0e3b73c2500e8d1528c9a6e17554ea1255490600090a1565b6000611119611a19565b611158576040805162461bcd60e51b81526020600482018190526024820152600080516020612622833981519152604482015290519081900360640190fd5b600354604080516370a0823160e01b815230600482015290516001600160a01b03909216916370a0823191602480820192602092909190829003018186803b1580156111a357600080fd5b505afa1580156111b7573d6000803e3d6000fd5b505050506040513d60208110156111cd57600080fd5b50516003549091506001600160a01b031663a9059cbb6111eb611a0a565b836040518363ffffffff1660e01b815260040180836001600160a01b03166001600160a01b0316815260200182815260200192505050602060405180830381600087803b15801561123b57600080fd5b505af115801561124f573d6000803e3d6000fd5b505050506040513d602081101561126557600080fd5b505161127057600080fd5b6040805182815290517fce1d35d26fbf6b3cc5cd924de10b5a52b08e484129ea7d93abc48d739fffe5b99181900360200190a190565b6112ae611a19565b6112ed576040805162461bcd60e51b81526020600482018190526024820152600080516020612622833981519152604482015290519081900360640190fd5b600080546040516001600160a01b03909116907f8be0079c531659141344cd1fd0a4f28419497f9722a3daafe3b4186f6b6457e0908390a3600080546001600160a01b0319169055565b600060055482511461134857600080fd5b6060600554604051908082528060200260200182016040528015611376578160200160208202803883390190505b50905060005b600554811015611472576002546000906001600160a01b031662fdd58e306113a3856121ad565b6040518363ffffffff1660e01b815260040180836001600160a01b03166001600160a01b031681526020018281526020019250505060206040518083038186803b1580156113f057600080fd5b505afa158015611404573d6000803e3d6000fd5b505050506040513d602081101561141a57600080fd5b50519050600081121561142c57600080fd5b6114528186848151811061143c57fe5b60200260200101516121ce90919063ffffffff16565b83838151811061145e57fe5b60209081029190910101525060010161137c565b50600073__Fixed192x64Math_______________________63137bf798600160401b6005540260016040518363ffffffff1660e01b8152600401808381526020018260028111156114bf57fe5b60ff1681526020019250505060206040518083038186803b1580156114e357600080fd5b505af41580156114f7573d6000803e3d6000fd5b505050506040513d602081101561150d57600080fd5b5051905060008061152183858360016121fc565b506040805163026f7ef360e31b81526004810184905260016024820152905192945090925073__Fixed192x64Math_______________________9163137bf79891604480820192602092909190829003018186803b15801561158257600080fd5b505af4158015611596573d6000803e3d6000fd5b505050506040513d60208110156115ac57600080fd5b505194506115c0858263ffffffff611e1516565b6007549095506115f390846115df88600160401b63ffffffff61242c16565b816115e657fe5b059063ffffffff61242c16565b945060008513158061160c575084600160401b80820502145b1561161f57600160401b8505945061162c565b600160401b850560010194505b50505050919050565b61163d611a19565b61167c576040805162461bcd60e51b81526020600482018190526024820152600080516020612622833981519152604482015290519081900360640190fd5b60008060095460ff16600281111561169057fe5b1461169a57600080fd5b6009805460ff191660011790556040517fbb11914e7a395f00cf0920fe85f50088bd8d7681529fb0bd3c27ccb45a8bcd8f90600090a150565b6116db611a19565b61171a576040805162461bcd60e51b81526020600482018190526024820152600080516020612622833981519152604482015290519081900360640190fd5b60018060095460ff16600281111561172e57fe5b1461173857600080fd5b8161178a576040805162461bcd60e51b815260206004820152601f60248201527f66756e64696e67206368616e6765206d757374206265206e6f6e2d7a65726f00604482015290519081900360640190fd5b600082131561190257600354604080516323b872dd60e01b81523360048201523060248201526044810185905290516001600160a01b03909216916323b872dd916064808201926020929091908290030181600087803b1580156117ed57600080fd5b505af1158015611801573d6000803e3d6000fd5b505050506040513d602081101561181757600080fd5b505180156118a657506003546002546040805163095ea7b360e01b81526001600160a01b039283166004820152602481018690529051919092169163095ea7b39160448083019260209291908290030181600087803b15801561187957600080fd5b505af115801561188d573d6000803e3d6000fd5b505050506040513d60208110156118a357600080fd5b50515b6118af57600080fd5b6118b882611eab565b6007546118cb908363ffffffff611e4a16565b6007556040805183815290517fc55e9a33fb8b1de5318b5c7b96a32937e54006c82000b2c468ed1fb9f73f67999181900360200190a15b6000821215611a065761191782600003612036565b60075461192e90600084900363ffffffff61246d16565b6007556003546001600160a01b031663a9059cbb61194a611a0a565b846000036040518363ffffffff1660e01b815260040180836001600160a01b03166001600160a01b0316815260200182815260200192505050602060405180830381600087803b15801561199d57600080fd5b505af11580156119b1573d6000803e3d6000fd5b505050506040513d60208110156119c757600080fd5b50516119d257600080fd5b6040805183815290517fc55e9a33fb8b1de5318b5c7b96a32937e54006c82000b2c468ed1fb9f73f67999181900360200190a15b5050565b6000546001600160a01b031690565b6000546001600160a01b0316331490565b60095461010090046001600160a01b031681565b600654670de0b6b3a764000067ffffffffffffffff909116919091020490565b6003546001600160a01b031681565b60006060600554604051908082528060200260200182016040528015611a9d578160200160208202803883390190505b50905060005b600554811015611b77576002546000906001600160a01b031662fdd58e30611aca856121ad565b6040518363ffffffff1660e01b815260040180836001600160a01b03166001600160a01b031681526020018281526020019250505060206040518083038186803b158015611b1757600080fd5b505afa158015611b2b573d6000803e3d6000fd5b505050506040513d6020811015611b4157600080fd5b505160009081039150811315611b5657600080fd5b80838381518110611b6357fe5b602090810291909101015250600101611aa3565b50600073__Fixed192x64Math_______________________63137bf798600160401b84510260026040518363ffffffff1660e01b815260040180838152602001826002811115611bc357fe5b60ff1681526020019250505060206040518083038186803b158015611be757600080fd5b505af4158015611bfb573d6000803e3d6000fd5b505050506040513d6020811015611c1157600080fd5b50519050600080611c2583858860026121fc565b9250509150600160401b8281611c3757fe5b048181611c4057fe5b049695505050505050565b60006001600160a01b038916301415611c6c575063bc197c8160e01b611c70565b5060005b98975050505050505050565b60095460ff1681565b60085481565b60075481565b60048181548110611c9e57fe5b600091825260209091200154905081565b60055481565b60065467ffffffffffffffff1681565b611ccd611a19565b611d0c576040805162461bcd60e51b81526020600482018190526024820152600080516020612622833981519152604482015290519081900360640190fd5b60018060095460ff166002811115611d2057fe5b14611d2a57600080fd5b6006805467ffffffffffffffff191667ffffffffffffffff848116919091179182905560408051929091168252517f43acfe4f4a14c012959016586aee3b318a0a30e17bb8edae05a58d46c80b4199916020908290030190a15050565b60006001600160a01b038716301415611da8575063f23a6e6160e01b611dac565b5060005b9695505050505050565b611dbe611a19565b611dfd576040805162461bcd60e51b81526020600482018190526024820152600080516020612622833981519152604482015290519081900360640190fd5b611e06816124ca565b50565b670de0b6b3a764000081565b81810160008212801590611e295750828112155b80611e3e5750600082128015611e3e57508281125b611e4457fe5b92915050565b600082820183811015611ea4576040805162461bcd60e51b815260206004820152601b60248201527f536166654d6174683a206164646974696f6e206f766572666c6f770000000000604482015290519081900360640190fd5b9392505050565b600454600019015b60008112611a06576060611edd600a8381548110611ecd57fe5b906000526020600020015461256a565b905060005b600b8381548110611eef57fe5b60009182526020909120015481101561202b57600254600354600b80546001600160a01b03938416936372ce42759316919087908110611f2b57fe5b906000526020600020018481548110611f4057fe5b906000526020600020015460048781548110611f5857fe5b906000526020600020015486896040518663ffffffff1660e01b815260040180866001600160a01b03166001600160a01b0316815260200185815260200184815260200180602001838152602001828103825284818151815260200191508051906020019060200280838360005b83811015611fde578181015183820152602001611fc6565b505050509050019650505050505050600060405180830381600087803b15801561200757600080fd5b505af115801561201b573d6000803e3d6000fd5b505060019092019150611ee29050565b505060001901611eb3565b60005b600454811015611a06576060612055600a8381548110611ecd57fe5b905060005b600b838154811061206757fe5b6000918252602090912001548110156121a357600254600354600b80546001600160a01b0393841693639e7212ad93169190879081106120a357fe5b9060005260206000200184815481106120b857fe5b9060005260206000200154600487815481106120d057fe5b906000526020600020015486896040518663ffffffff1660e01b815260040180866001600160a01b03166001600160a01b0316815260200185815260200184815260200180602001838152602001828103825284818151815260200191508051906020019060200280838360005b8381101561215657818101518382015260200161213e565b505050509050019650505050505050600060405180830381600087803b15801561217f57600080fd5b505af1158015612193573d6000803e3d6000fd5b50506001909201915061205a9050565b5050600101612039565b6000600c82815481106121bc57fe5b90600052602060002001549050919050565b808203600082128015906121e25750828113155b80611e3e5750600082128015611e3e5750828113611e4457fe5b60008060008087121580156122145750600060075412155b61221d57600080fd5b6040516333304e0560e21b815260206004820181815288516024840152885173__Fixed192x64Math_______________________9363ccc13814938b9392839260440191808601910280838360005b8381101561228457818101518382015260200161226c565b505050509050019250505060206040518083038186803b1580156122a757600080fd5b505af41580156122bb573d6000803e3d6000fd5b505050506040513d60208110156122d157600080fd5b50516007549092506122e9838963ffffffff61242c16565b816122f057fe5b05915061230c8268b8000000000000000063ffffffff6121ce16565b91506000805b87518160ff1610156124205773__Fixed192x64Math_______________________631d58012361237c866007546123688e8e8860ff168151811061235257fe5b602002602001015161242c90919063ffffffff16565b8161236f57fe5b059063ffffffff6121ce16565b886040518363ffffffff1660e01b8152600401808381526020018260028111156123a257fe5b60ff1681526020019250505060206040518083038186803b1580156123c657600080fd5b505af41580156123da573d6000803e3d6000fd5b505050506040513d60208110156123f057600080fd5b5051915060ff8181169088161415612406578192505b612416858363ffffffff611e4a16565b9450600101612312565b50509450945094915050565b60008261243b57506000611e44565b50818102600019831415806124545750600160ff1b8214155b8015611e3e57508183828161246557fe5b0514611e4457fe5b6000828211156124c4576040805162461bcd60e51b815260206004820152601e60248201527f536166654d6174683a207375627472616374696f6e206f766572666c6f770000604482015290519081900360640190fd5b50900390565b6001600160a01b03811661250f5760405162461bcd60e51b81526004018080602001828103825260268152602001806125cf6026913960400191505060405180910390fd5b600080546040516001600160a01b03808516939216917f8be0079c531659141344cd1fd0a4f28419497f9722a3daafe3b4186f6b6457e091a3600080546001600160a01b0319166001600160a01b0392909216919091179055565b606081604051908082528060200260200182016040528015612596578160200160208202803883390190505b50905060005b828110156125c857806001901b8282815181106125b557fe5b602090810291909101015260010161259c565b5091905056fe4f776e61626c653a206e6577206f776e657220697320746865207a65726f20616464726573736f6e6c792077686974656c6973746564207573657273206d61792063616c6c20746869732066756e6374696f6e4f776e61626c653a2063616c6c6572206973206e6f7420746865206f776e657254686973204d61726b65742068617320616c7265616479206265656e20636c6f736564a265627a7a72305820e4409066e7612fe5f532aabdfac8baa43525c31a1382d59e2f69195057ae780064736f6c634300050a0032",
  "source": "pragma solidity ^0.5.1;\n\nimport {IERC20} from \"openzeppelin-solidity/contracts/token/ERC20/IERC20.sol\";\nimport {ConditionalTokens} from \"./ConditionalTokens.sol\";\nimport {CTHelpers} from \"./CTHelpers.sol\";\nimport {ConstructedCloneFactory} from \"@gnosis.pm/util-contracts/contracts/ConstructedCloneFactory.sol\";\nimport {LMSRMarketMaker} from \"./LMSRMarketMaker.sol\";\nimport {Whitelist} from \"./Whitelist.sol\";\nimport {ERC1155TokenReceiver} from \"./ERC1155/ERC1155TokenReceiver.sol\";\n\ncontract LMSRMarketMakerData {\n    address internal _owner;\n    event OwnershipTransferred(\n        address indexed previousOwner,\n        address indexed newOwner\n    );\n\n    bytes4 internal constant _INTERFACE_ID_ERC165 = 0x01ffc9a7;\n    mapping(bytes4 => bool) internal _supportedInterfaces;\n\n    uint64 constant FEE_RANGE = 10**18;\n    event AMMCreated(uint256 initialFunding);\n    ConditionalTokens internal pmSystem;\n    IERC20 internal collateralToken;\n    bytes32[] internal conditionIds;\n    uint256 internal atomicOutcomeSlotCount;\n    uint64 internal fee;\n    uint256 internal funding;\n    Stage internal stage;\n    Whitelist internal whitelist;\n\n    uint256[] internal outcomeSlotCounts;\n    bytes32[][] internal collectionIds;\n    uint256[] internal positionIds;\n\n    enum Stage {\n        Running,\n        Paused,\n        Closed\n    }\n}\n\ncontract LMSRMarketMakerFactory is\n    ConstructedCloneFactory,\n    LMSRMarketMakerData\n{\n    event LMSRMarketMakerCreation(\n        address indexed creator,\n        LMSRMarketMaker lmsrMarketMaker,\n        ConditionalTokens pmSystem,\n        IERC20 collateralToken,\n        bytes32[] conditionIds,\n        uint64 fee,\n        uint256 funding\n    );\n\n    LMSRMarketMaker public implementationMaster;\n\n    constructor() public {\n        implementationMaster = new LMSRMarketMaker();\n    }\n\n    function cloneConstructor(bytes calldata consData) external {\n        (\n            ConditionalTokens _pmSystem,\n            IERC20 _collateralToken,\n            bytes32[] memory _conditionIds,\n            uint64 _fee,\n            Whitelist _whitelist\n        ) = abi.decode(\n                consData,\n                (ConditionalTokens, IERC20, bytes32[], uint64, Whitelist)\n            );\n\n        _owner = msg.sender;\n        emit OwnershipTransferred(address(0), _owner);\n\n        _supportedInterfaces[_INTERFACE_ID_ERC165] = true;\n        _supportedInterfaces[\n            ERC1155TokenReceiver(0).onERC1155Received.selector ^\n                ERC1155TokenReceiver(0).onERC1155BatchReceived.selector\n        ] = true;\n\n        // Validate inputs\n        require(address(_pmSystem) != address(0) && _fee < FEE_RANGE);\n        pmSystem = _pmSystem;\n        collateralToken = _collateralToken;\n        conditionIds = _conditionIds;\n        fee = _fee;\n        whitelist = _whitelist;\n\n        atomicOutcomeSlotCount = 1;\n        outcomeSlotCounts = new uint256[](conditionIds.length);\n        for (uint256 i = 0; i < conditionIds.length; i++) {\n            uint256 outcomeSlotCount = pmSystem.getOutcomeSlotCount(\n                conditionIds[i]\n            );\n            atomicOutcomeSlotCount *= outcomeSlotCount;\n            outcomeSlotCounts[i] = outcomeSlotCount;\n        }\n        require(atomicOutcomeSlotCount > 1, \"conditions must be valid\");\n\n        collectionIds = new bytes32[][](conditionIds.length);\n        _recordCollectionIDsForAllConditions(conditionIds.length, bytes32(0));\n\n        stage = Stage.Paused;\n        emit AMMCreated(funding);\n    }\n\n    function _recordCollectionIDsForAllConditions(\n        uint256 conditionsLeft,\n        bytes32 parentCollectionId\n    ) private {\n        if (conditionsLeft == 0) {\n            positionIds.push(\n                CTHelpers.getPositionId(collateralToken, parentCollectionId)\n            );\n            return;\n        }\n\n        conditionsLeft--;\n\n        uint256 outcomeSlotCount = outcomeSlotCounts[conditionsLeft];\n\n        collectionIds[conditionsLeft].push(parentCollectionId);\n        for (uint256 i = 0; i < outcomeSlotCount; i++) {\n            _recordCollectionIDsForAllConditions(\n                conditionsLeft,\n                CTHelpers.getCollectionId(\n                    parentCollectionId,\n                    conditionIds[conditionsLeft],\n                    1 << i\n                )\n            );\n        }\n    }\n\n    function createLMSRMarketMaker(\n        ConditionalTokens pmSystem,\n        IERC20 collateralToken,\n        bytes32[] calldata conditionIds,\n        uint64 fee,\n        Whitelist whitelist,\n        uint256 funding\n    ) external returns (LMSRMarketMaker lmsrMarketMaker) {\n        lmsrMarketMaker = LMSRMarketMaker(\n            createClone(\n                address(implementationMaster),\n                abi.encode(\n                    pmSystem,\n                    collateralToken,\n                    conditionIds,\n                    fee,\n                    whitelist\n                )\n            )\n        );\n        collateralToken.transferFrom(msg.sender, address(this), funding);\n        collateralToken.approve(address(lmsrMarketMaker), funding);\n        lmsrMarketMaker.changeFunding(int256(funding));\n        lmsrMarketMaker.resume();\n        lmsrMarketMaker.transferOwnership(msg.sender);\n        emit LMSRMarketMakerCreation(\n            msg.sender,\n            lmsrMarketMaker,\n            pmSystem,\n            collateralToken,\n            conditionIds,\n            fee,\n            funding\n        );\n    }\n}\n",
  "sourcePath": "/Users/shark/Desktop/derived-finance/derived/conditional-prediction-market/contracts/LMSRMarketMakerFactory.sol",
  "compiler": {
    "name": "solc",
    "version": "0.5.10+commit.5a6ea5b1.Emscripten.clang"
  },
  "schemaVersion": "3.4.2",
  "updatedAt": "2021-12-05T14:40:01.962Z",
  "networkType": "ethereum",
  "devdoc": {
    "methods": {}
  },
  "userdoc": {
    "methods": {}
  }
}